{
  "contractName": "DEX",
  "abi": [
    {
      "inputs": [],
      "stateMutability": "nonpayable",
      "type": "constructor"
    },
    {
      "anonymous": false,
      "inputs": [
        {
          "indexed": false,
          "internalType": "uint256",
          "name": "amount",
          "type": "uint256"
        }
      ],
      "name": "Bought",
      "type": "event"
    },
    {
      "anonymous": false,
      "inputs": [
        {
          "indexed": false,
          "internalType": "uint256",
          "name": "amount",
          "type": "uint256"
        }
      ],
      "name": "Sold",
      "type": "event"
    },
    {
      "inputs": [],
      "name": "token",
      "outputs": [
        {
          "internalType": "contract IERC20",
          "name": "",
          "type": "address"
        }
      ],
      "stateMutability": "view",
      "type": "function",
      "constant": true
    },
    {
      "inputs": [],
      "name": "buy",
      "outputs": [],
      "stateMutability": "payable",
      "type": "function",
      "payable": true
    },
    {
      "inputs": [
        {
          "internalType": "uint256",
          "name": "amount",
          "type": "uint256"
        }
      ],
      "name": "sell",
      "outputs": [],
      "stateMutability": "nonpayable",
      "type": "function"
    }
  ],
  "bytecode": "0x608060405234801561001057600080fd5b5060405161001d9061007e565b604051809103906000f080158015610039573d6000803e3d6000fd5b506000806101000a81548173ffffffffffffffffffffffffffffffffffffffff021916908373ffffffffffffffffffffffffffffffffffffffff16021790555061008b565b610e6c80610a7a83390190565b6109e08061009a6000396000f3fe6080604052600436106100345760003560e01c8063a6f2ae3a14610039578063e4849b3214610043578063fc0c546a1461006c575b600080fd5b610041610097565b005b34801561004f57600080fd5b5061006a600480360381019061006591906105b1565b6102b9565b005b34801561007857600080fd5b50610081610521565b60405161008e9190610768565b60405180910390f35b600034905060008060009054906101000a900473ffffffffffffffffffffffffffffffffffffffff1673ffffffffffffffffffffffffffffffffffffffff166370a08231306040518263ffffffff1660e01b81526004016100f891906106c4565b60206040518083038186803b15801561011057600080fd5b505afa158015610124573d6000803e3d6000fd5b505050506040513d601f19601f8201168201806040525081019061014891906105de565b90506000821161018d576040517f08c379a0000000000000000000000000000000000000000000000000000000008152600401610184906107e3565b60405180910390fd5b808211156101d0576040517f08c379a00000000000000000000000000000000000000000000000000000000081526004016101c7906107c3565b60405180910390fd5b60008054906101000a900473ffffffffffffffffffffffffffffffffffffffff1673ffffffffffffffffffffffffffffffffffffffff1663a9059cbb33846040518363ffffffff1660e01b815260040161022b92919061073f565b602060405180830381600087803b15801561024557600080fd5b505af1158015610259573d6000803e3d6000fd5b505050506040513d601f19601f8201168201806040525081019061027d9190610584565b507f4e08ba899977cf7d4c2964bce71c6b9a7ef76ee5166a4c1249a1e08016e33ef1826040516102ad9190610803565b60405180910390a15050565b600081116102fc576040517f08c379a00000000000000000000000000000000000000000000000000000000081526004016102f390610783565b60405180910390fd5b60008060009054906101000a900473ffffffffffffffffffffffffffffffffffffffff1673ffffffffffffffffffffffffffffffffffffffff1663dd62ed3e33306040518363ffffffff1660e01b815260040161035a9291906106df565b60206040518083038186803b15801561037257600080fd5b505afa158015610386573d6000803e3d6000fd5b505050506040513d601f19601f820116820180604052508101906103aa91906105de565b9050818110156103ef576040517f08c379a00000000000000000000000000000000000000000000000000000000081526004016103e6906107a3565b60405180910390fd5b60008054906101000a900473ffffffffffffffffffffffffffffffffffffffff1673ffffffffffffffffffffffffffffffffffffffff166323b872dd3330856040518463ffffffff1660e01b815260040161044c93929190610708565b602060405180830381600087803b15801561046657600080fd5b505af115801561047a573d6000803e3d6000fd5b505050506040513d601f19601f8201168201806040525081019061049e9190610584565b503373ffffffffffffffffffffffffffffffffffffffff166108fc839081150290604051600060405180830381858888f193505050501580156104e5573d6000803e3d6000fd5b507f92f64ca637d023f354075a4be751b169c1a8a9ccb6d33cdd0cb3520543995727826040516105159190610803565b60405180910390a15050565b60008054906101000a900473ffffffffffffffffffffffffffffffffffffffff1681565b6000815190506105548161097c565b92915050565b60008135905061056981610993565b92915050565b60008151905061057e81610993565b92915050565b60006020828403121561059a576105996108ad565b5b60006105a884828501610545565b91505092915050565b6000602082840312156105c7576105c66108ad565b5b60006105d58482850161055a565b91505092915050565b6000602082840312156105f4576105f36108ad565b5b60006106028482850161056f565b91505092915050565b6106148161082f565b82525050565b61062381610877565b82525050565b600061063660258361081e565b9150610641826108b2565b604082019050919050565b600061065960198361081e565b915061066482610901565b602082019050919050565b600061067c60208361081e565b91506106878261092a565b602082019050919050565b600061069f601b8361081e565b91506106aa82610953565b602082019050919050565b6106be8161086d565b82525050565b60006020820190506106d9600083018461060b565b92915050565b60006040820190506106f4600083018561060b565b610701602083018461060b565b9392505050565b600060608201905061071d600083018661060b565b61072a602083018561060b565b61073760408301846106b5565b949350505050565b6000604082019050610754600083018561060b565b61076160208301846106b5565b9392505050565b600060208201905061077d600083018461061a565b92915050565b6000602082019050818103600083015261079c81610629565b9050919050565b600060208201905081810360008301526107bc8161064c565b9050919050565b600060208201905081810360008301526107dc8161066f565b9050919050565b600060208201905081810360008301526107fc81610692565b9050919050565b600060208201905061081860008301846106b5565b92915050565b600082825260208201905092915050565b600061083a8261084d565b9050919050565b60008115159050919050565b600073ffffffffffffffffffffffffffffffffffffffff82169050919050565b6000819050919050565b600061088282610889565b9050919050565b60006108948261089b565b9050919050565b60006108a68261084d565b9050919050565b600080fd5b7f596f75206e65656420746f2073656c6c206174206c6561737420736f6d65207460008201527f6f6b656e73000000000000000000000000000000000000000000000000000000602082015250565b7f436865636b2074686520746f6b656e20616c6c6f77616e636500000000000000600082015250565b7f4e6f7420656e6f75676820746f6b656e7320696e207468652072657365727665600082015250565b7f596f75206e65656420746f2073656e6420736f6d652065746865720000000000600082015250565b61098581610841565b811461099057600080fd5b50565b61099c8161086d565b81146109a757600080fd5b5056fea26469706673582212200b4d920e4c74a6f1e619176dd44cca89e40654d3412b4461cba4ad749cb8684964736f6c634300080700336080604052678ac7230489e8000060025534801561001c57600080fd5b506002546000803373ffffffffffffffffffffffffffffffffffffffff1673ffffffffffffffffffffffffffffffffffffffff16815260200190815260200160002081905550610dfb806100716000396000f3fe608060405234801561001057600080fd5b50600436106100935760003560e01c8063313ce56711610066578063313ce5671461013457806370a082311461015257806395d89b4114610182578063a9059cbb146101a0578063dd62ed3e146101d057610093565b806306fdde0314610098578063095ea7b3146100b657806318160ddd146100e657806323b872dd14610104575b600080fd5b6100a0610200565b6040516100ad9190610b9d565b60405180910390f35b6100d060048036038101906100cb9190610adc565b610239565b6040516100dd9190610b82565b60405180910390f35b6100ee61032b565b6040516100fb9190610bbf565b60405180910390f35b61011e60048036038101906101199190610a89565b610335565b60405161012b9190610b82565b60405180910390f35b61013c6106b0565b6040516101499190610bda565b60405180910390f35b61016c60048036038101906101679190610a1c565b6106b5565b6040516101799190610bbf565b60405180910390f35b61018a6106fd565b6040516101979190610b9d565b60405180910390f35b6101ba60048036038101906101b59190610adc565b610736565b6040516101c79190610b82565b60405180910390f35b6101ea60048036038101906101e59190610a49565b610918565b6040516101f79190610bbf565b60405180910390f35b6040518060400160405280600a81526020017f455243323042617369630000000000000000000000000000000000000000000081525081565b600081600160003373ffffffffffffffffffffffffffffffffffffffff1673ffffffffffffffffffffffffffffffffffffffff16815260200190815260200160002060008573ffffffffffffffffffffffffffffffffffffffff1673ffffffffffffffffffffffffffffffffffffffff168152602001908152602001600020819055508273ffffffffffffffffffffffffffffffffffffffff163373ffffffffffffffffffffffffffffffffffffffff167f8c5be1e5ebec7d5bd14f71427d1e84f3dd0314c0f7b2291e5b200ac8c7c3b925846040516103199190610bbf565b60405180910390a36001905092915050565b6000600254905090565b60008060008573ffffffffffffffffffffffffffffffffffffffff1673ffffffffffffffffffffffffffffffffffffffff1681526020019081526020016000205482111561038257600080fd5b600160008573ffffffffffffffffffffffffffffffffffffffff1673ffffffffffffffffffffffffffffffffffffffff16815260200190815260200160002060003373ffffffffffffffffffffffffffffffffffffffff1673ffffffffffffffffffffffffffffffffffffffff1681526020019081526020016000205482111561040b57600080fd5b61045c826000808773ffffffffffffffffffffffffffffffffffffffff1673ffffffffffffffffffffffffffffffffffffffff1681526020019081526020016000205461099f90919063ffffffff16565b6000808673ffffffffffffffffffffffffffffffffffffffff1673ffffffffffffffffffffffffffffffffffffffff1681526020019081526020016000208190555061052d82600160008773ffffffffffffffffffffffffffffffffffffffff1673ffffffffffffffffffffffffffffffffffffffff16815260200190815260200160002060003373ffffffffffffffffffffffffffffffffffffffff1673ffffffffffffffffffffffffffffffffffffffff1681526020019081526020016000205461099f90919063ffffffff16565b600160008673ffffffffffffffffffffffffffffffffffffffff1673ffffffffffffffffffffffffffffffffffffffff16815260200190815260200160002060003373ffffffffffffffffffffffffffffffffffffffff1673ffffffffffffffffffffffffffffffffffffffff168152602001908152602001600020819055506105fe826000808673ffffffffffffffffffffffffffffffffffffffff1673ffffffffffffffffffffffffffffffffffffffff168152602001908152602001600020546109c690919063ffffffff16565b6000808573ffffffffffffffffffffffffffffffffffffffff1673ffffffffffffffffffffffffffffffffffffffff168152602001908152602001600020819055508273ffffffffffffffffffffffffffffffffffffffff168473ffffffffffffffffffffffffffffffffffffffff167fddf252ad1be2c89b69c2b068fc378daa952ba7f163c4a11628f55a4df523b3ef8460405161069d9190610bbf565b60405180910390a3600190509392505050565b601281565b60008060008373ffffffffffffffffffffffffffffffffffffffff1673ffffffffffffffffffffffffffffffffffffffff168152602001908152602001600020549050919050565b6040518060400160405280600381526020017f455243000000000000000000000000000000000000000000000000000000000081525081565b60008060003373ffffffffffffffffffffffffffffffffffffffff1673ffffffffffffffffffffffffffffffffffffffff1681526020019081526020016000205482111561078357600080fd5b6107d4826000803373ffffffffffffffffffffffffffffffffffffffff1673ffffffffffffffffffffffffffffffffffffffff1681526020019081526020016000205461099f90919063ffffffff16565b6000803373ffffffffffffffffffffffffffffffffffffffff1673ffffffffffffffffffffffffffffffffffffffff16815260200190815260200160002081905550610867826000808673ffffffffffffffffffffffffffffffffffffffff1673ffffffffffffffffffffffffffffffffffffffff168152602001908152602001600020546109c690919063ffffffff16565b6000808573ffffffffffffffffffffffffffffffffffffffff1673ffffffffffffffffffffffffffffffffffffffff168152602001908152602001600020819055508273ffffffffffffffffffffffffffffffffffffffff163373ffffffffffffffffffffffffffffffffffffffff167fddf252ad1be2c89b69c2b068fc378daa952ba7f163c4a11628f55a4df523b3ef846040516109069190610bbf565b60405180910390a36001905092915050565b6000600160008473ffffffffffffffffffffffffffffffffffffffff1673ffffffffffffffffffffffffffffffffffffffff16815260200190815260200160002060008373ffffffffffffffffffffffffffffffffffffffff1673ffffffffffffffffffffffffffffffffffffffff16815260200190815260200160002054905092915050565b6000828211156109b2576109b1610d23565b5b81836109be9190610c67565b905092915050565b60008082846109d59190610c11565b9050838110156109e8576109e7610d23565b5b8091505092915050565b600081359050610a0181610d97565b92915050565b600081359050610a1681610dae565b92915050565b600060208284031215610a3257610a31610d81565b5b6000610a40848285016109f2565b91505092915050565b60008060408385031215610a6057610a5f610d81565b5b6000610a6e858286016109f2565b9250506020610a7f858286016109f2565b9150509250929050565b600080600060608486031215610aa257610aa1610d81565b5b6000610ab0868287016109f2565b9350506020610ac1868287016109f2565b9250506040610ad286828701610a07565b9150509250925092565b60008060408385031215610af357610af2610d81565b5b6000610b01858286016109f2565b9250506020610b1285828601610a07565b9150509250929050565b610b2581610cad565b82525050565b6000610b3682610bf5565b610b408185610c00565b9350610b50818560208601610cf0565b610b5981610d86565b840191505092915050565b610b6d81610cd9565b82525050565b610b7c81610ce3565b82525050565b6000602082019050610b976000830184610b1c565b92915050565b60006020820190508181036000830152610bb78184610b2b565b905092915050565b6000602082019050610bd46000830184610b64565b92915050565b6000602082019050610bef6000830184610b73565b92915050565b600081519050919050565b600082825260208201905092915050565b6000610c1c82610cd9565b9150610c2783610cd9565b9250827fffffffffffffffffffffffffffffffffffffffffffffffffffffffffffffffff03821115610c5c57610c5b610d52565b5b828201905092915050565b6000610c7282610cd9565b9150610c7d83610cd9565b925082821015610c9057610c8f610d52565b5b828203905092915050565b6000610ca682610cb9565b9050919050565b60008115159050919050565b600073ffffffffffffffffffffffffffffffffffffffff82169050919050565b6000819050919050565b600060ff82169050919050565b60005b83811015610d0e578082015181840152602081019050610cf3565b83811115610d1d576000848401525b50505050565b7f4e487b7100000000000000000000000000000000000000000000000000000000600052600160045260246000fd5b7f4e487b7100000000000000000000000000000000000000000000000000000000600052601160045260246000fd5b600080fd5b6000601f19601f8301169050919050565b610da081610c9b565b8114610dab57600080fd5b50565b610db781610cd9565b8114610dc257600080fd5b5056fea2646970667358221220380cd6d8e7fa0322ce62248b242699fa96867345d8ce88f26efaf586e2b0d2dc64736f6c63430008070033",
  "immutableReferences": {},
  "source": "// SPDX-License-Identifier: MIT\r\npragma solidity ^0.8.0;\r\n\r\nimport './ERCContract.sol';\r\n\r\n\r\ncontract DEX {\r\n\r\n    event Bought(uint256 amount);\r\n    event Sold(uint256 amount);\r\n\r\n\r\n    IERC20 public token;\r\n\r\n    constructor() {\r\n        token = new ERC20Basic();\r\n    }\r\n\r\n    function buy() payable public {\r\n        uint256 amountTobuy = msg.value;\r\n        uint256 dexBalance = token.balanceOf(address(this));\r\n        require(amountTobuy > 0, \"You need to send some ether\");\r\n        require(amountTobuy <= dexBalance, \"Not enough tokens in the reserve\");\r\n        token.transfer(msg.sender, amountTobuy);\r\n        emit Bought(amountTobuy);\r\n    }\r\n\r\n    function sell(uint256 amount) public {\r\n        require(amount > 0, \"You need to sell at least some tokens\");\r\n        uint256 allowance = token.allowance(msg.sender, address(this));\r\n        require(allowance >= amount, \"Check the token allowance\");\r\n        token.transferFrom(msg.sender, address(this), amount);\r\n        payable(msg.sender).transfer(amount);\r\n        emit Sold(amount);\r\n    }\r\n\r\n}\r\n",
  "sourcePath": "G:\\PIAIC\\Bootcamp2021\\DEX-Project4\\backend2\\contracts\\DEXContract.sol",
  "compiler": {
    "name": "solc",
    "version": "0.8.7+commit.e28d00a7.Emscripten.clang"
  },
  "schemaVersion": "3.4.3",
  "updatedAt": "2021-09-10T02:46:27.828Z",
  "networkType": "ethereum",
  "devdoc": {
    "kind": "dev",
    "methods": {},
    "version": 1
  },
  "userdoc": {
    "kind": "user",
    "methods": {},
    "version": 1
  }
}